:100000000C9463000C948B000C948B000C948B006C
:100010000C948B000C948B000C948B000C948B0034
:100020000C948B000C948B000C948B000C94510A54
:100030000C948B000C948B000C948B000C948B0014
:100040000C94E8080C948B000C94B6080C9490085F
:100050000C948B000C948B000C948B000C948B00F4
:100060000C9432090C948B0000000000240027003F
:100070002A0000000000250028002B0000000000DE
:1000800023002600290004040404040404040202DA
:100090000202020203030303030301020408102007
:1000A0004080010204081020010204081020000012
:1000B0000008000201000003040700000000000027
:1000C00000000D0B530E11241FBECFEFD8E0DEBF92
:1000D000CDBF11E0A0E0B1E0EEE1F2E202C0059098
:1000E0000D92A03CB107D9F724E0A0ECB1E001C02B
:1000F0001D92A135B207E1F710E0C2E6D0E004C0DE
:100100002197FE010E94010FC136D107C9F70E9455
:100110001A0C0C9402110C94000096E0899FD001F7
:100120001124AE52BC4F90967C936E935F9791E0F2
:1001300091969C939197E0913F04F09140049091A7
:100140003E04992339F0309751F0811108C0809115
:10015000EE030994309719F05C968C91FACF0895CC
:10016000CF92DF92EF92FF920F931F9396E0899FB9
:10017000F0011124EE52FC4F11A2278D30A1213045
:10018000310551F178F02230310509F451C02330A6
:10019000310509F452C01F910F91FF90EF90DF904D
:1001A000CF9008956623B9F361E070E00E948D005E
:1001B0002FB7F8948091E2029091E302A091E402BB
:1001C000B091E5022FBF80932A0490932B04A09353
:1001D0002C04B0932D04DFCF9FB7F894C090E202B7
:1001E000D090E302E090E402F090E5029FBF00911E
:1001F0002A0410912B0420912C0430912D04C01A54
:10020000D10AE20AF30A00913C0410913D0430E067
:1002100020E00C151D052E053F0550F462E070E04E
:100220001F910F91FF90EF90DF90CF900C948D0075
:100230006111B1CF63E070E0F3CF70E060E0F0CF28
:100240000895CF93DF93AC01E0915E02F0915F02DD
:100250003097F1F090915D0280915C029817C0F0A8
:1002600090E0292F30E02617370754F4D901AF5317
:10027000BE4F240F351FE90128812C939F5FF1CFDA
:1002800010925D0260935C02CB01DF91CF910994E3
:10029000DF91CF910895AF92BF92CF92DF92EF920C
:1002A000FF920F931F93CF93DF936C017B018B0120
:1002B000040F151FEB015E01AE18BF08C017D10770
:1002C00059F06991D601ED91FC910190F081E02DFA
:1002D000C6010995892B79F7C501DF91CF911F914F
:1002E0000F91FF90EF90DF90CF90BF90AF90089567
:1002F000FC01538D448D252F30E0842F90E0821B2C
:10030000930B541710F0CF96089501970895FC01B0
:10031000918D828D981761F0A28DAE0FBF2FB11D08
:100320005D968C91928D9F5F9F73928F90E0089560
:100330008FEF9FEF0895FC01918D828D981731F01A
:10034000828DE80FF11D858D90E008958FEF9FEF6E
:100350000895FC01918D228D892F90E0805C9F4F44
:10036000821B91098F739927089586EE92E00E946F
:10037000A90121E0892B09F420E0822F089580E073
:1003800090E0892B29F00E94B50181110C940000A6
:100390000895FC01A48DA80FB92FB11DA35ABF4F1A
:1003A0002C91848D90E001968F739927848FA68974
:1003B000B7892C93A089B1898C91837080648C93C8
:1003C000938D848D981306C00288F389E02D808177
:1003D0008F7D80830895EF92FF920F931F93CF93A9
:1003E000DF93EC0181E0888F9B8D8C8D98131AC070
:1003F000E889F989808185FF15C09FB7F894EE8957
:10040000FF896083E889F9898081837080648083B3
:100410009FBF81E090E0DF91CF911F910F91FF90FE
:10042000EF900895F62E0B8D10E00F5F1F4F0F73A6
:100430001127E02E8C8D8E110CC00FB607FCFACF61
:10044000E889F989808185FFF5CFCE010E94C90135
:10045000F1CFEB8DEC0FFD2FF11DE35AFF4FF08232
:100460009FB7F8940B8FEA89FB8980818062CFCF98
:10047000CF93DF93EC01888D8823B9F0AA89BB89DB
:10048000E889F9898C9185FD03C0808186FD0DC0C6
:100490000FB607FCF7CF8C9185FFF2CF808185FFE7
:1004A000EDCFCE010E94C901E9CFDF91CF91089530
:1004B000833081F028F4813099F08230A9F00895DA
:1004C0008730A9F08830C9F08430B1F48091800081
:1004D0008F7D03C0809180008F7780938000089586
:1004E00084B58F7784BD089584B58F7DFBCF8091CF
:1004F000B0008F778093B00008958091B0008F7D19
:10050000F9CFCF93DF93282F30E0F901E255FF4F69
:100510008491F901E656FF4FD491F901EA57FF4F54
:10052000C491CC23A1F081110E945802EC2FF0E07D
:10053000EE0FFF1FE458FF4FA591B491EC91ED230E
:1005400081E090E009F480E0DF91CF91089580E0B0
:1005500090E0FACF862F0C9481021F93CF93DF9304
:10056000282F30E0F901E255FF4F8491F901E6565A
:10057000FF4FD491F901EA57FF4FC491CC23A9F062
:10058000162F81110E945802EC2FF0E0EE0FFF1F92
:10059000EE58FF4FA591B4918FB7F894EC911111DB
:1005A00008C0D095DE23DC938FBFDF91CF911F91E0
:1005B0000895DE2BF8CF862F642F0C94AD02CF93D5
:1005C000DF9390E0FC01E656FF4F24918A579F4F3E
:1005D000FC0184918823C9F090E0880F991FFC01E9
:1005E000E859FF4FA591B491FC01EE58FF4FC5911A
:1005F000D49161110DC09FB7F8948C9120958223FE
:100600008C938881282328839FBFDF91CF91089501
:10061000623051F49FB7F8943C91822F80958323E8
:100620008C93E8812E2BEFCF8FB7F894EC912E2B83
:100630002C938FBFEACF862F642F0C94DF026F922A
:100640007F928F929F92AF92BF92CF92DF92EF9262
:10065000FF920F931F93CF93DF9381E080933E042B
:100660008FB7F8944091E2025091E3026091E40266
:100670007091E5028FBF80912E0490912F04A0917C
:100680003004B0913104481B590B6A0B7B0B8091ED
:100690003A0490913B04B0E0A0E084179507A607C8
:1006A000B70708F01DC1C0E080913804C81760F496
:1006B000E0913404F0913504EC0FF11D62E080818B
:1006C0000E94DF02CF5FF0CF712C812C912C54015E
:1006D000839480913904781608F05FC0072D10E0EC
:1006E000E0913604F0913704E00FF11F61E0808162
:1006F0000E94DF02E0913604F0913704E00FF11F11
:1007000060E080810E94AD02D501C401072C04C0C5
:10071000880F991FAA1FBB1F0A94D2F76C017C0196
:10072000E094F094612C809138046816F8F4C62D9A
:10073000D0E0E0913404F0913504EC0FFD1F80818E
:100740000E9481022496CC0FDD1FCE52DC4F892BF4
:1007500041F4888199818C299D29998388836394A8
:10076000E2CF888199818E219F21F7CFE0913604D5
:10077000F0913704E00FF11F61E080810E94AD022B
:100780008091360490913704080F191F60E0F8013A
:1007900080810E94DF0273949CCFC2EDD3E0FE0102
:1007A0008FEF9FEF278D30A1232B21F4148E968F8E
:1007B000858F11A2369624E0EE30F20799F7F12CDE
:1007C00096E0D92E80913804F81608F050C0E12C3C
:1007D0000F2D10E0000F111F06521C4F20913904FD
:1007E000E21608F042C0F801608171810E2C02C04F
:1007F000769567950A94E2F7F29E900111242E0DEA
:10080000311DE2EDF3E080E0458D568D241735076C
:1008100009F46AC08F5F36968A30B1F760FF23C053
:10082000E2EDF3E090E080E0448D411117C0E091EB
:100830003204F0913304E20FF31F4081D89EF0019F
:10084000D99EF00D1124EE52FC4F448F368F258F28
:1008500010A2178E61E00E94B00005C00196369686
:100860008A30910509F7E394B9CFF394ABCF80E0D8
:1008700099A19111892F2696F4E0CE30DF07C1F7B8
:100880009FB7F8944091E2025091E3026091E40234
:100890007091E5029FBF40932E0450932F04609304
:1008A0003004709331048823D9F08091F3038823B6
:1008B000B9F08091F1039091F203019789F480914E
:1008C000EE03DF91CF911F910F91FF90EF90DF909A
:1008D000CF90BF90AF909F908F907F906F90089532
:1008E00010923E0480E0EDCF6170B5CF3FB7F89431
:1008F0008091520290915302A0915402B0915502FE
:1009000026B5A89B05C02F3F19F00196A11DB11D6A
:100910003FBFBA2FA92F982F8827BC01CD01620FA6
:10092000711D811D911D42E0660F771F881F991F61
:100930004A95D1F708958F929F92AF92BF92CF922E
:10094000DF92EF92FF924B015C010E9476046B01F3
:100950007C010E9476046C197D098E099F09683E0E
:10096000734081059105A8F321E0821A9108A1083E
:10097000B10888EEC80E83E0D81EE11CF11C81147A
:100980009104A104B10429F7FF90EF90DF90CF907C
:10099000BF90AF909F908F90089520910702260FEF
:1009A0003327331F21323105ECF420912B02FC0157
:1009B00090E080E0243069F082E00895A091070281
:1009C0002191AC0149515E4FA40FB52FB11D2C935D
:1009D0000196861798F380910702680F60930702CB
:1009E00080E0089581E0089510922B0281E08093C9
:1009F0002D0210922C0261E082E10E94AD0261E0C2
:100A000083E10E94AD02E9EBF0E080818E7F80837C
:100A100080818D7F808388E48093B80085E4809313
:100A2000BC0008950895E0915D0280915C02E81792
:100A300030F4F0E0EF53FE4F808190E008958FEFA7
:100A40009FEF089590915D0280915C022FEF3FEF40
:100A5000981748F4E92FF0E0EF53FE4F208130E083
:100A60009F5F90935D02C901089580915C0290910F
:100A70005D02891B990B0895CF93DF93CB01EA01A7
:100A8000642F0E94CD04CE01DF91CF910895CF93C2
:100A9000DF931F92CDB7DEB7698361E0CE01019687
:100AA0000E94CD0481E090E00F90DF91CF910895F6
:100AB0008F929F92AF92BF92FF920F931F93CF930B
:100AC000DF93FC01F0808BE08F1508F44AC082812F
:100AD00008E512E0081B110987FD1395000F111F8F
:100AE000000F111F8181C8E8D0E0C81BD10987FD24
:100AF000D395CC0FDD1FCC0FDD1F4E010D2E000C4A
:100B0000AA08BB089801012E000C440B550B2819AC
:100B100039094A095B09DB010E94850E24EB30E0AC
:100B200040E050E00E945B0E820E931EA41EB51E94
:100B30008C169D062CF0E801801691060CF4E40159
:100B40002297CC0FDD1F2FB7F8948F2D90E0FC017A
:100B5000EE0FFF1FE80FF91FE157FC4FD283C1834F
:100B60002FBFDF91CF911F910F91FF90BF90AF905A
:100B70009F908F9008951F93CF93DF93EC01162FD2
:100B800088818C3008F04EC061E0812F0E94DF0226
:100B90008881282F30E0F901EE0FFF1FE20FF31FCD
:100BA000E157FC4F1F736081607C612B6083198269
:100BB0001A822CE0622F0E94F50E829FB001112450
:100BC00030E020E0AB01420F531FFA01EE0FFF1F90
:100BD000E40FF51FE157FC4F908196FD16C02F5F83
:100BE0003F4F2C30310571F781110FC010928000FA
:100BF00082E0809381001092850010928400B19A67
:100C000080916F00826080936F00E8818E2F90E06A
:100C1000FC01EE0FFF1FE80FF91FE157FC4F808129
:100C2000806480838881DF91CF911F91089508951A
:100C300090E080E00895CF93DF93EC0160E08E8137
:100C40000E94AD0261E08E810E94AD0260E08E8163
:100C50000E94AD028BE891E00197F1F7DF91CF910F
:100C60000895CF92DF92EF92FF920F931F93CF934D
:100C7000DF936C017C0187E0E80EF11CD0E0C0E05E
:100C8000062F10E0B8010C2E02C0759567950A94E6
:100C9000E2F76170F70181917F010E94AD02219618
:100CA000C430D10579F7C601DF91CF911F910F9123
:100CB000FF90EF90DF90CF900C941B06CF92DF92C5
:100CC000EF92FF920F931F93CF93DF93EC01F62ED9
:100CD000642F8C810E94AD028D818F3F19F060E0FE
:100CE0000E94AD020F2D10E08F8584FF25C06E019C
:100CF00087E0C80ED11CF12CE12CB8010E2C02C0EB
:100D0000759567950A94E2F76170F60181916F011C
:100D10000E94AD02FFEFEF1AFF0A88E0E816F10427
:100D200061F7CE01DF91CF911F910F91FF90EF906E
:100D3000DF90CF900C941B06B80184E07595679501
:100D40008A95E1F7CE010E9431066F2DCE01DF9129
:100D5000CF911F910F91FF90EF90DF90CF900C9467
:100D6000310640E061E084EB93E00E945E068BE395
:100D70009FE10197F1F70895CF93DF93823029F433
:100D80009091C30398609093C3038093C70310921C
:100D9000C80380E48093C90380E18093CA0380E59F
:100DA0008093CB0361E08091B8030E94DF028091C1
:100DB000B9038F3F19F061E00E94DF0261E080918A
:100DC000BA030E94DF02C4EBD3E09E01245B3340F0
:100DD0008091C30384FD0BC084E090E02196281726
:100DE000390744F461E08E810E94DF02EECF88E093
:100DF00090E0F4CF8BE39DE00197F1F760E0809104
:100E0000B8030E94AD0260E08091BA030E94AD0277
:100E10008091B9038F3F19F060E00E94AD026091AC
:100E2000C30364FD3DC063E084EB93E00E943106A0
:100E3000CBE4D6E4CE010197F1F763E084EB93E0D5
:100E40000E9431062197F1F763E084EB93E00E9462
:100E5000310683E592E00197F1F762E084EB93E0DD
:100E60000E9431066091C303606240E084EB93E02E
:100E70000E945E0684E08093C40340E06CE084EB53
:100E800093E00E945E060E94B10682E08093C50353
:100E900040E066E084EB93E0DF91CF910C945E0636
:100EA000606240E084EB93E00E945E068BE496E48F
:100EB0000197F1F76091C303606240E084EB93E037
:100EC0000E945E0683E592E00197F1F76091C3030B
:100ED000606240E084EB93E00E945E06C3CF41E095
:100EE0000E945E0681E090E00895CF93DF93EC01CD
:100EF00088819981009711F00E94A30F19821882AE
:100F00001D821C821B821A82DF91CF910895FC0101
:100F100080819181009711F00C94A30F08950F9395
:100F20001F93CF93DF938C019093E1028093E002B3
:100F3000E0E6F2E080E4DF011D928A95E9F7EF0137
:100F4000CE01805692408017910734F483E893E0F5
:100F50000E9422058993F4CFDF91CF911F910F91C9
:100F60000895FB0101900020E9F73197AF01461B7E
:100F7000570BDC01ED91FC910280F381E02D099487
:100F8000FC0124813581232B39F421E0FB01808190
:100F9000882349F020E007C0808191810E94F210EF
:100FA00021E0892BB9F7822F08950F931F93CF93D8
:100FB000DF93EC0188819981009759F02A813B8168
:100FC0002617370730F081E0DF91CF911F910F9105
:100FD00008958B016F5F7F4F0E942C10009759F08E
:100FE000998388831B830A832C813D81232B59F7A6
:100FF000FC011082E8CF80E0E7CFEF92FF920F93E1
:101000001F93CF93DF93EC017B018A01BA010E9409
:10101000D50781110BC0CE010E947507CE01DF916B
:10102000CF911F910F91FF90EF9008951D830C8336
:10103000B701888199810E94FB10F0CFFB010190DC
:101040000020E9F73197AF01461B570B0C94FD07C1
:10105000FC01118210821382128215821482FB011C
:1010600001900020E9F73197AF01461B570B0C9414
:10107000FD07CF93DF9385ED8093BC008091E30162
:101080009091E401A091E501B091E6010796A11DC0
:10109000B11D23E0B695A795979587952A95D1F729
:1010A0002091BC0024FD03C010922B0236C0409159
:1010B000E3015091E4016091E5017091E601452B57
:1010C000462B472B69F30097A105B10541F025E3B5
:1010D0002A95F1F700000197A109B109E1CF8091AC
:1010E000E20191E09093E1018823B9F0C091B8004A
:1010F000D091BA008091BC008A7B8093BC0060E0F4
:1011000082E10E94AD0260E083E10E94AD020E9494
:10111000F404D093BA00C093B800DF91CF91089542
:101120001F920F920FB60F9211242F933F934F935C
:101130005F936F937F938F939F93AF93BF93EF933F
:10114000FF9386EE92E00E94C901FF91EF91BF915B
:10115000AF919F918F917F916F915F914F913F914F
:101160002F910F900FBE0F901F9018951F920F9206
:101170000FB60F9211242F938F939F93EF93FF93AA
:10118000E091F602F091F7028081E091FC02F0918B
:10119000FD0282FD1BC090818091FF028F5F8F73E3
:1011A00020910003821741F0E091FF02F0E0EA5144
:1011B000FD4F958F8093FF02FF91EF919F918F914B
:1011C0002F910F900FBE0F901F9018958081F4CF34
:1011D0001F920F920FB60F9211242F933F938F936C
:1011E0009F93AF93BF938091E2029091E302A0910D
:1011F000E402B091E5023091510223E0230F2D3734
:1012000058F50196A11DB11D209351028093E20271
:101210009093E302A093E402B093E502809152021E
:1012200090915302A0915402B09155020196A11DD4
:10123000B11D8093520290935302A0935402B09335
:101240005502BF91AF919F918F913F912F910F9038
:101250000FBE0F901F90189526E8230F0296A11D30
:10126000B11DD2CF1F920F920FB60F9211242F9360
:101270003F934F935F936F937F938F939F93AF931E
:10128000BF93EF93FF938091B900887F803609F474
:101290004AC0F0F5883209F4A7C018F5803109F486
:1012A0009BC0B8F4882309F4F9C0883009F494C0CD
:1012B000FF91EF91BF91AF919F918F917F916F912E
:1012C0005F914F913F912F910F900FBE0F901F9004
:1012D0001895883109F488C0803251F780932A022A
:1012E00014C0803409F49DC040F48033B9F38833CE
:1012F000F9F680932A0285ECB0C0803509F485C0E8
:10130000883509F496C0883499F60E943908D0CF00
:10131000883909F48CC038F5883729F050F48836BC
:1013200011F0803729F683E080932B021092290276
:1013300057C0883809F47BC0803919F0803809F02B
:10134000B7CF80912902803208F071C0E091290264
:1013500081E08E0F809329028091BB00F0E0E75F6F
:10136000FD4F80833DC0803B39F0E0F4803A09F4C2
:1013700079C0883A09F09CCF84E080932B021092C8
:10138000080210920702E0915802F0915902099563
:101390008091070281110FC081E0809307021092B3
:1013A000E70109C0803C09F4A6CF883C09F4A3CF2B
:1013B000883B09F07DCFE091080281E08E0F809399
:1013C0000802F0E0E951FE4F80818093BB009091CC
:1013D00008028091070229C0809150028093BB00CF
:1013E00085EC8093BC0064CF90914F0280914E02B7
:1013F000981758F5E0914F0281E08E0F80934F02CD
:10140000F0E0E25DFD4F8081E9CFE0914F0281E0A5
:101410008E0F80934F028091BB00F0E0E25DFD4FA4
:10142000808390914F0280914E029817C8F285E810
:10143000D8CFE0914F0281E08E0F80934F028091D0
:10144000BB00F0E0E25DFD4F808380912D028111B1
:101450005CCF81E080932C0284EA8093BC001092E0
:101460002B0226CF85EC8093BC0010922B0280913A
:101470002902803230F4E0912902F0E0E75FFD4F6D
:1014800010826091290270E0E0915602F0915702BB
:1014900089E092E00995109229020ACF10922A025F
:1014A00034CF1F920F920FB60F9211242F933F93B8
:1014B0004F935F936F937F938F939F93AF93BF935C
:1014C000CF93DF93EF93FF938091C001C091B3035B
:1014D000D0E087FF24C01092850010928400809194
:1014E000C0018F5F8093C0018091C001082E000C65
:1014F000990B8C179D0724F48091C0018C30C4F1A6
:101500008091840090918500049680349C4908F471
:101510007AC08091840090918500049676C0809175
:10152000C001082E000C990B8C179D07C4F6E091A2
:10153000C0018E2FEE0F990BFC01EE0FFF1FE80F7D
:10154000F91FE157FC4F808186FFC9CFE091C001B0
:101550008E2FEE0F990BFC01EE0FFF1FE80FF91F06
:10156000E157FC4F808160E08F730E94AD02B7CFDE
:101570002091840030918500E091C0018E2FEE0F04
:10158000990BFC01EE0FFF1FE80FF91FE157FC4F0D
:1015900081819281820F931F9093890080938800AC
:1015A000E091C0018E2FEE0F990BFC01EE0FFF1F93
:1015B000E80FF91FE157FC4F808186FF11C0E091D1
:1015C000C0018E2FEE0F990BFC01EE0FFF1FE80FED
:1015D000F91FE157FC4F808161E08F730E94AD02DB
:1015E000FF91EF91DF91CF91BF91AF919F918F913B
:1015F0007F916F915F914F913F912F910F900FBE0F
:101600000F901F90189580E49CE990938900809337
:1016100088008FEF8093C001E3CF1092E90210920F
:10162000E80288EE93E0A0E0B0E08093EA029093B5
:10163000EB02A093EC02B093ED022DE131E0309388
:10164000E7022093E60225EC30E03093F30220938A
:10165000F20224EC30E03093F5022093F40220EC07
:1016600030E03093F7022093F60221EC30E0309323
:10167000F9022093F80222EC30E03093FB02209331
:10168000FA0226EC30E03093FD022093FC02109227
:10169000FF021092000310920103109202031092B5
:1016A0008603109285038093870390938803A09309
:1016B0008903B0938A038FE291E09093840380932F
:1016C000830365E571E087E494E00E94280865E5FE
:1016D00071E081E494E00E9428081092D4031092F3
:1016E000D8031092D7031092D9038DE491E0909320
:1016F000D3038093D203EEEEF3E0108214821382C0
:101700001582369684E0EA32F807B9F783E091E073
:10171000909335048093340480E091E090933704F3
:101720008093360484E08093380483E08093390406
:1017300087E091E090933304809332048AE090E054
:1017400090933B0480933A0484EF91E090933D049E
:1017500080933C041092400410923F0410922E0497
:1017600010922F04109230041092310410923E0413
:101770008091B3038C3008F055C091E0980F90939E
:10178000B3038093CF0390E0FC01EE0FFF1FE80F3F
:10179000F91FE157FC4F88EB9BE092838183809196
:1017A000B3038C3008F042C091E0980F9093B303DC
:1017B0008093CC0390E0FC01EE0FFF1FE80FF91FB0
:1017C000E157FC4F88EB9BE0928381831092B70333
:1017D0001092B60381E491E09093B5038093B40333
:1017E0008CE08093B8038FEF8093B9038BE08093F4
:1017F000BA038EE08093BB038FE08093BC0380E14B
:101800008093BD0381E18093BE031092BF031092C9
:10181000C0031092C1031092C2031092C30381E06F
:101820000C94BC068FEF8093CF03B9CF8FEF8093DA
:10183000CC03CCCFCF93DF93CDB7DEB762970FB693
:10184000F894DEBF0FBECDBF789484B5826084BDAE
:1018500084B5816084BD85B5826085BD85B58160B4
:1018600085BD80916E00816080936E001092810032
:1018700080918100826080938100809181008160ED
:1018800080938100809180008160809380008091AE
:10189000B10084608093B1008091B000816080933A
:1018A000B00080917A00846080937A0080917A0001
:1018B000826080937A0080917A00816080937A00C0
:1018C00080917A00806880937A001092C100E09144
:1018D000F602F091F70282E08083E091F602F09147
:1018E000F7021082E091F202F091F3021082E0918F
:1018F000F402F091F50210E110831092FE02E091E3
:10190000FA02F091FB0286E08083E091F802F09108
:10191000F902808180618083E091F802F091F90200
:10192000808188608083E091F802F091F9028081E3
:1019300080688083E091F802F091F90280818F7DC8
:10194000808310925D0210925C0210925B021092F2
:101950005A020E94F40480E291E09093590280932D
:10196000580281E291E090935702809356021093BF
:10197000BA008FE897E090935F0280935E0261E087
:101980008DE00E94DF0260E089E00E94DF026AE0F1
:1019900070E08FEC93E00E94BB056DE070E08CEC92
:1019A00093E00E94BB0582E00E94BC0680E0E82E26
:1019B00080E0F82E89E00E948102C090E002D09081
:1019C000E1021C141D0444F580E4E0E6F2E0A0EA24
:1019D000B2E001900D928A95E1F700EA12E0F80179
:1019E00061918F0186EE92E00E94EB01C801805A5E
:1019F00092408C159D059CF365E571E086EE92E0C2
:101A00000E94B10763E571E086EE92E00E94B107A3
:101A10001092E1021092E00260EA72E0CE010D96AF
:101A20000E94280866E571E0CE010D960E94C0076D
:101A300066E571E081110AC06BE571E0CE010D969B
:101A40000E94C007882331F06BE571E087E494E0E1
:101A50000E941E080E941F03182F66E571E087E4AC
:101A600094E00E94C007882309F4FFC0112309F401
:101A7000A7C06FE571E084EB93E00E94B1071A8282
:101A800019821C821B821E821D821F831886BE0142
:101A9000695F7F4FCE0101960E941E0818861F8243
:101AA0001A8619861C861B86609141047091420437
:101AB0006115710541F04091450450914604CE01F5
:101AC00007960E94FD07C980DA80C114D10409F489
:101AD00087C00D811E8101151105B9F08B859C858C
:101AE000080F191FB801CE0107960E94D507882359
:101AF00009F476C02F8138858B859C85B601820FCD
:101B0000931F0E94FB101C870B876F8178856115DE
:101B1000710509F46AC04B855C8581E494E00E94FC
:101B2000FD07CE0107960E948707CE0101960E940D
:101B3000870761E671E081E494E00E94C00720918C
:101B4000450430914604882309F454C024303105FB
:101B500009F050C070E060E08CEC93E00E94580502
:101B60006AEF70E080E090E00E949B0470E060E02B
:101B70008FEC93E00E94580565E571E081E494E004
:101B80000E941E080E94B10666E671E084EB93E0B5
:101B90000E94B10764E670E080E090E00E949B0440
:101BA0000E94B10662E771E084EB93E00E94B10706
:101BB00064EF71E080E090E00E949B040E94B10617
:101BC000CE010D960E948707E114F10409F4F2CECC
:101BD0000E94B501882309F4EDCE0E940000EACEF0
:101BE000CE0107960E94750790CF81E494E00E9491
:101BF000750797CF2430310518F30E941F03082E74
:101C0000000C990B8A589140D9F20E941F03082EAC
:101C1000000C990B8C58914099F20E941F03082EDA
:101C2000000C990B8E58914059F20E941F03082E08
:101C3000000C990B8456914009F4C2CF65E571E020
:101C400081E494E00E941E080E94B10660E971E000
:101C500084EB93E00E94B10768EC70E080E090E0D4
:101C60000E949B040E94B106DDCE6BE571E087E423
:101C700094E00E94C007882309F4A2CF6AE570E0CF
:101C80008FEC93E00E9458056AEF70E080E090E0EE
:101C90000E949B046AE570E08CEC93E00E9458057A
:101CA0006FE971E081CF81E494E00E94870787E4C7
:101CB00094E00C948707052E97FB1EF400940E9475
:101CC000720E57FD07D00E94C40E07FC03D04EF4DD
:101CD0000C94720E50954095309521953F4F4F4F83
:101CE0005F4F089590958095709561957F4F8F4FC8
:101CF0009F4F08950E94E60EA59F900DB49F900DF2
:101D0000A49F800D911D11240895B7FF0C947A0EA5
:101D10000E947A0E821B930B08952F923F924F924E
:101D20005F926F927F928F929F92AF92BF92CF926B
:101D3000DF92EF92FF920F931F93CF93DF93CDB774
:101D4000DEB7CA1BDB0B0FB6F894DEBF0FBECDBFEC
:101D500009942A88398848885F846E847D848C84BD
:101D60009B84AA84B984C884DF80EE80FD800C81C6
:101D70001B81AA81B981CE0FD11D0FB6F894DEBFA9
:101D80000FBECDBFED010895A1E21A2EAA1BBB1B09
:101D9000FD010DC0AA1FBB1FEE1FFF1FA217B30737
:101DA000E407F50720F0A21BB30BE40BF50B661F4D
:101DB000771F881F991F1A9469F760957095809511
:101DC00090959B01AC01BD01CF010895A29FB00188
:101DD000B39FC001A39F700D811D1124911DB29F5F
:101DE000700D811D1124911D0895991B79E004C087
:101DF000991F961708F0961B881F7A95C9F780954A
:101E00000895EE0FFF1F0590F491E02D09940F93B4
:101E10001F93CF93DF938230910510F482E090E01E
:101E2000E0914F04F091500430E020E0B0E0A0E0F9
:101E3000309799F42115310509F44AC0281B390B54
:101E400024303105D8F58A819B816115710589F1AE
:101E5000FB0193838283FE0111C040815181028185
:101E6000138148175907E0F04817590799F410975C
:101E700061F012960C93129713961C933296CF0131
:101E8000DF91CF911F910F91089500934F0410930C
:101E90005004F4CF2115310551F04217530738F0A3
:101EA000A901DB019A01BD01DF01F801C1CFEF01FA
:101EB000F9CF9093500480934F04CDCFFE01E20FF1
:101EC000F31F819391932250310939832883D7CF0F
:101ED00020914D0430914E04232B41F420911501A3
:101EE0003091160130934E0420934D04209113013C
:101EF000309114012115310541F42DB73EB74091C1
:101F0000170150911801241B350BE0914D04F091FD
:101F10004E04E217F307A0F42E1B3F0B28173907D6
:101F200078F0AC014E5F5F4F2417350748F04E0F35
:101F30005F1F50934E0440934D04819391939FCF24
:101F4000F0E0E0E09CCFCF93DF930097E9F0FC0155
:101F5000329713821282A0914F04B0915004ED0188
:101F600030E020E01097A1F420813181820F931F8F
:101F700020914D0430914E042817390709F061C0B3
:101F8000F0934E04E0934D04DF91CF910895EA0160
:101F9000CE17DF07E8F54A815B819E0141155105A7
:101FA000B1F7E901FB83EA8349915991C40FD51F29
:101FB000EC17FD0761F4808191810296840F951FD3
:101FC000E90199838883828193819B838A83F0E0EE
:101FD000E0E012968D919C9113970097B9F52D91A1
:101FE0003C911197CD010296820F931F20914D04D1
:101FF00030914E042817390739F6309751F5109271
:10200000500410924F04B0934E04A0934D04BCCFE3
:10201000D383C28340815181840F951FC817D9078C
:1020200061F44E5F5F4F88819981480F591F51833A
:1020300040838A819B81938382832115310509F036
:10204000B0CFF0935004E0934F049ECFFD01DC012C
:10205000C0CF13821282D7CFB0E0A0E0E2E3F0E17C
:102060000C948F0E8C01009751F4CB010E94070F46
:102070008C01C801CDB7DEB7E0E10C94AB0EFC01DA
:10208000E60FF71F9C0122503109E217F30708F40D
:102090009DC0D901CD91DC911197C617D70798F053
:1020A000C530D10530F3CE0104978617970708F3A2
:1020B000C61BD70B2297C193D1936D937C93CF010D
:1020C0000E94A30FD6CF5B01AC1ABD0A4C018C0E47
:1020D0009D1EA0914F04B0915004512C412CF12C25
:1020E000E12C109731F580914D0490914E048815A4
:1020F000990509F05CC04616570608F058C0809153
:10210000130190911401009741F48DB79EB740914F
:10211000170150911801841B950BE817F90708F077
:1021200055C0F0934E04E0934D04F9017183608330
:10213000A0CF8D919C91119712966C901297139647
:102140007C901397A815B90559F56C0142E0C40EAF
:10215000D11CCA14DB0420F1AC014A195B09DA0175
:102160001296159780F06282738251834083D90161
:102170006D937C93E114F10471F0D7011396FC93F5
:10218000EE93129776CF22968C0F9D1FF9019183C3
:102190008083F301EFCFF0935004E0934F0469CFB5
:1021A0004816590608F42C017D01D3019ACFCB01C2
:1021B0000E94070F7C01009749F0AE01B8010E9410
:1021C000E910C8010E94A30F870153CF10E000E07F
:1021D00050CFFB01DC0102C001900D9241505040F4
:1021E000D8F70895FB01DC018D9101908019011051
:1021F000D9F3990B0895FB01DC0101900D920020A9
:10220000E1F7089510E0C2E6D0E004C0FE010E94AC
:0E221000010F2196C336D107C9F7F894FFCF0E
:10221E0004050608070203313233343536373839B0
:10222E0023302A00005104800000000000EB014B17
:10223E000178013802A90187019B010000000047C7
:10224E00053C05180612053505220513050000008C
:10225E00006F074B0118061706000000001B03DB7A
:10226E0002AA020D0A0048494748004C4F57002A5F
:10227E000031323334005661756C74556E6C6F6379
:10228E006B00507265737350757368427574746F1A
:10229E006E20546F204C6F636B00310032003300A0
:1022AE0057726F6E672050617373776F7264005050
:1022BE007265737350757368427574746F6E2054C3
:1022CE006F20416363657373204B657970616400A1
:00000001FF
