:100000000C945D000C9485000C9485000C94850084
:100010000C9485000C9485000C9485000C9485004C
:100020000C9485000C9485000C9485000C9485003C
:100030000C9485000C9485000C9485000C9485002C
:100040000C942B060C9485000C94F9050C94D305A4
:100050000C9485000C9485000C9485000C9485000C
:100060000C9475060C948500000000080002010045
:100070000003040700000000000000000000000072
:10008000250028002B0000000000240027002A0083
:10009000040404040404040402020202020203032E
:1000A0000303030301020408102040800102040836
:1000B0001020010204081020940711241FBECFEF66
:1000C000D8E0DEBFCDBF23E0A0E4B1E001C01D92C7
:1000D000AA32B207E1F711E0A0E0B1E0E0EDF9E10A
:1000E00002C005900D92A034B107D9F710E0CDE51C
:1000F000D0E004C02197FE010E94E50ACC35D1076B
:10010000C9F70E94EA070C94E60C0C94000090E0FA
:10011000FC01EC55FF4F249180579F4FFC018491C7
:10012000882399F090E0880F991FFC01EA57FF4F50
:10013000A591B491FC01E458FF4F859194918FB73C
:10014000F894EC91E22BEC938FBF08950895CF9330
:10015000DF93AC01E091E101F091E2013097F1F021
:100160009091E0018091DF019817C0F090E0292F75
:1001700030E02617370754F4D901A05CBE4F240F96
:10018000351FE90128812C939F5FF1CF1092E00188
:100190006093DF01CB01DF91CF910994DF91CF9183
:1001A0000895AF92BF92CF92DF92EF92FF920F939A
:1001B0001F93CF93DF936C017B018B01040F151FFD
:1001C000EB015E01AE18BF08C017D10759F0699165
:1001D000D601ED91FC910190F081E02DC6010995C9
:1001E000892B79F7C501DF91CF911F910F91FF9076
:1001F000EF90DF90CF90BF90AF900895FC01538DAA
:10020000448D252F30E0842F90E0821B930B5417F0
:1002100010F0CF96089501970895FC01918D828D7D
:10022000981761F0A28DAE0FBF2FB11D5D968C9116
:10023000928D9F5F9F73928F90E008958FEF9FEF55
:100240000895FC01918D828D981731F0828DE80F11
:10025000F11D858D90E008958FEF9FEF0895FC01CB
:10026000918D228D892F90E0805C9F4F821B910998
:100270008F739927089585E692E00E942F0121E06F
:10028000892B09F420E0822F089580E090E0892BEB
:1002900029F00E943B0181110C9400000895FC019B
:1002A000A48DA80FB92FB11DA35ABF4F2C91848DD7
:1002B00090E001968F739927848FA689B7892C9334
:1002C000A089B1898C91837080648C93938D848D87
:1002D000981306C00288F389E02D80818F7D80838A
:1002E0000895EF92FF920F931F93CF93DF93EC014A
:1002F00081E0888F9B8D8C8D98131AC0E889F989CD
:10030000808185FF15C09FB7F894EE89FF896083CF
:10031000E889F98980818370806480839FBF81E050
:1003200090E0DF91CF911F910F91FF90EF90089592
:10033000F62E0B8D10E00F5F1F4F0F731127E02E6D
:100340008C8D8E110CC00FB607FCFACFE889F989A5
:10035000808185FFF5CFCE010E944F01F1CFEB8D5B
:10036000EC0FFD2FF11DE35AFF4FF0829FB7F89479
:100370000B8FEA89FB8980818062CFCFCF93DF9397
:10038000EC01888D8823B9F0AA89BB89E889F989AD
:100390008C9185FD03C0808186FD0DC00FB607FCE2
:1003A000F7CF8C9185FFF2CF808185FFEDCFCE0115
:1003B0000E944F01E9CFDF91CF91089590E0FC01B9
:1003C000E859FF4F2491FC01EC55FF4F3491FC019B
:1003D000E057FF4FE491EE23C9F0222339F0233098
:1003E00001F1A8F4213019F1223029F1F0E0EE0FEB
:1003F000FF1FE458FF4FA591B4918FB7F894EC918B
:10040000611126C030953E233C938FBF089527305D
:10041000A9F02830C9F0243049F7809180008F7D01
:1004200003C0809180008F7780938000DFCF84B5F8
:100430008F7784BDDBCF84B58F7DFBCF8091B000FB
:100440008F778093B000D2CF8091B0008F7DF9CFAD
:100450003E2BDACF3FB7F8948091D5019091D60129
:10046000A091D701B091D80126B5A89B05C02F3F18
:1004700019F00196A11DB11D3FBFBA2FA92F982FCA
:100480008827BC01CD01620F711D811D911D42E0C5
:10049000660F771F881F991F4A95D1F70895089511
:1004A00020918601260F3327331F21323105ECF4CA
:1004B0002091AA01FC0190E080E0243069F082E004
:1004C0000895A09186012191AC014A595E4FA40F75
:1004D000B52FB11D2C930196861798F38091860154
:1004E000680F6093860180E0089581E0089510927E
:1004F000AA0181E08093AC011092AB0161E082E13E
:100500000E94DE0161E083E10E94DE01E9EBF0E0A0
:1005100080818E7F808380818D7F808388E480933B
:10052000B80085E48093BC0008950895E091E0014F
:100530008091DF01E81730F4F0E0E05CFE4F80814D
:1005400090E008958FEF9FEF08959091E0018091E2
:10055000DF012FEF3FEF981748F4E92FF0E0E05C60
:10056000FE4F208130E09F5F9093E001C901089524
:100570008091DF019091E001891B990B0895CF9341
:10058000DF93CB01EA01642F0E945002CE01DF917C
:10059000CF910895CF93DF931F92CDB7DEB76983D4
:1005A00061E0CE0101960E94500281E090E00F9040
:1005B000DF91CF91089590E080E00895FC010190D3
:1005C0000020E9F73197AF01481B590BBC0185E6C4
:1005D00092E00C94D100CF93DF93FC0144815581CC
:1005E0006081718185E692E00E94D100EC0186E392
:1005F00091E00E94DE028C0F9D1FDF91CF91089544
:10060000CF93DF93EC0160E08E810E94DE0161E018
:100610008E810E94DE0160E08E810E94DE018BE807
:1006200091E00197F1F7DF91CF910895CF92DF929A
:10063000EF92FF920F931F93CF93DF936C017C0196
:1006400087E0E80EF11CD0E0C0E0062F10E0B80112
:100650000C2E02C0759567950A94E2F76170F70158
:1006600081917F010E94DE012196C430D10579F786
:10067000C601DF91CF911F910F91FF90EF90DF9016
:10068000CF900C940003CF92DF92EF92FF920F93E2
:100690001F93CF93DF93EC01F62E642F8C810E9481
:1006A000DE018D818F3F19F060E00E94DE010F2D89
:1006B00010E08F8584FF25C06E0187E0C80ED11C35
:1006C000F12CE12CB8010E2C02C0759567950A94A7
:1006D000E2F76170F60181916F010E94DE01FFEF88
:1006E000EF1AFF0A88E0E816F10461F7CE01DF9106
:1006F000CF911F910F91FF90EF90DF90CF900C94CE
:100700000003B80184E0759567958A95E1F7CE01FD
:100710000E9416036F2DCE01DF91CF911F910F9193
:10072000FF90EF90DF90CF900C94160340E0682F7D
:100730008EE093E00C94430381E00E9496038BE3E8
:100740009FE10197F1F70895CF93DF93823029F469
:1007500090911D03986090931D0380932103109244
:10076000220380E48093230380E18093240380E5C7
:1007700080932503809112030E94870080911303C8
:100780008F3F11F00E948700809114030E94870020
:10079000CEE0D3E09E012E50334080911D0384FDB6
:1007A0000AC084E090E02196281739073CF48E8136
:1007B0000E948700EFCF88E090E0F5CF8BE39DE0CB
:1007C0000197F1F760E0809112030E94DE0160E082
:1007D000809114030E94DE01809113038F3F19F072
:1007E00060E00E94DE0180911D0384FD34C063E05F
:1007F0008EE093E00E941603CBE4D6E4CE0101978D
:10080000F1F763E08EE093E00E9416032197F1F781
:1008100063E08EE093E00E94160383E592E0019787
:10082000F1F762E08EE093E00E94160380911D03D1
:1008300080620E94960384E080931E038CE00E94F5
:1008400096030E949C0382E080931F0386E0DF9161
:10085000CF910C94960380620E9496038BE496E4F9
:100860000197F1F780911D0380620E94960383E552
:1008700092E00197F1F780911D0380620E94960338
:10088000D5CF41E00E94430381E090E008950F93AB
:100890001F93CF93DF938C01909364028093630244
:1008A000E3EEF1E080E4DF011D928A95E9F7EF01C4
:1008B000CE01835E91408017910734F482E093E08B
:1008C0000E94A5028993F4CFDF91CF911F910F91E0
:1008D0000895CF93DF93EC01A881B981EB01E88102
:1008E000F9811097F1F03097B1F4EC018C819D8182
:1008F000892BC9F08C9190E00BC0DB0114968D918F
:100900009C91892B81F0808190E09195819591094E
:10091000DF91CF910895BF01CD01DF91CF910C946C
:10092000D60C309751F790E080E0F2CFFC01808147
:100930009181009711F00C94870B08950F931F93EA
:10094000CF93DF93EC0188819981009759F02A8138
:100950003B812617370730F081E0DF91CF911F915F
:100960000F9108958B016F5F7F4F0E94100C0097CD
:1009700059F0998388831B830A832C813D81232B23
:1009800059F7FC011082E8CF80E0E7CFEF92FF92A9
:100990000F931F93CF93DF93EC017B01FB01019039
:1009A0000020E9F73197E61BF70BA1F00C811D81C0
:1009B0000E0F1F1FB8010E949E04288139818823D1
:1009C00089F08C819D81B701820F931F0E94DF0CFB
:1009D0001D830C83CE01DF91CF911F910F91FF906A
:1009E000EF9008952115310519F0C9010E94870B78
:1009F000198218821D821C821B821A82EBCFEF9211
:100A0000FF920F931F93CF93DF93EC017B018A0139
:100A1000BA010E949E0428813981811114C02115D8
:100A2000310519F0C9010E94870B198218821D82B5
:100A30001C821B821A82CE01DF91CF911F910F91F0
:100A4000FF90EF9008951D830C83B701C9010E94A8
:100A5000DF0CF1CFEF92FF920F931F93CF93DF93B1
:100A6000CDB7DEB762970FB6F894DEBF0FBECDBF2D
:100A70008C01CB01F801118210821382128215823F
:100A800014824AE09E012F5F3F4F7901B9010E9415
:100A9000420AF70101900020E9F73197AF014E19A2
:100AA0005F09B701C8010E94FF0462960FB6F8946F
:100AB000DEBF0FBECDBFDF91CF911F910F91FF9091
:100AC000EF900895FB01DC0111961C921E92139683
:100AD0001C921E92129715961C921E9214978617BE
:100AE000970749F0608171816115710521F044819A
:100AF00055810C94FF040895CF93DF9385ED809387
:100B0000BC008091620190916301A0916401B09159
:100B100065010796A11DB11D23E0B695A795979590
:100B200087952A95D1F72091BC0024FD03C010922F
:100B3000AA0136C040916201509163016091640145
:100B400070916501452B462B472B69F30097A10552
:100B5000B10541F025E32A95F1F700000197A109BD
:100B6000B109E1CF8091610191E090936001882308
:100B7000B9F0C091B800D091BA008091BC008A7BD6
:100B80008093BC0060E082E10E94DE0160E083E1CE
:100B90000E94DE010E947702D093BA00C093B80091
:100BA000DF91CF9108951F920F920FB60F921124EB
:100BB0002F933F934F935F936F937F938F939F9365
:100BC000AF93BF93EF93FF9385E692E00E944F01AE
:100BD000FF91EF91BF91AF919F918F917F916F9115
:100BE0005F914F913F912F910F900FBE0F901F90EB
:100BF00018951F920F920FB60F9211242F938F9377
:100C00009F93EF93FF93E0917502F09176028081BC
:100C1000E0917B02F0917C0282FD1BC0908180916B
:100C20007E028F5F8F7320917F02821741F0E091E7
:100C30007E02F0E0EB59FD4F958F80937E02FF918D
:100C4000EF919F918F912F910F900FBE0F901F905A
:100C500018958081F4CF1F920F920FB60F92112436
:100C60002F933F938F939F93AF93BF938091D10125
:100C70009091D201A091D301B091D4013091D001D3
:100C800023E0230F2D3758F50196A11DB11D2093A8
:100C9000D0018093D1019093D201A093D301B0935E
:100CA000D4018091D5019091D601A091D701B09146
:100CB000D8010196A11DB11D8093D5019093D60155
:100CC000A093D701B093D801BF91AF919F918F911D
:100CD0003F912F910F900FBE0F901F90189526E80F
:100CE000230F0296A11DB11DD2CF1F920F920FB6F6
:100CF0000F9211242F933F934F935F936F937F93A2
:100D00008F939F93AF93BF93EF93FF938091B9001D
:100D1000887F803609F44AC0F0F5883209F4A7C00C
:100D200018F5803109F49BC0B8F4882309F4F9C0A0
:100D3000883009F494C0FF91EF91BF91AF919F91DA
:100D40008F917F916F915F914F913F912F910F9074
:100D50000FBE0F901F901895883109F488C080321B
:100D600051F78093A90114C0803409F49DC040F468
:100D70008033B9F38833F9F68093A90185ECB0C0CC
:100D8000803509F485C0883509F496C0883499F611
:100D90000E947C05D0CF883909F48CC038F588379B
:100DA00029F050F4883611F0803729F683E08093DB
:100DB000AA011092A80157C0883809F47BC0803975
:100DC00019F0803809F0B7CF8091A801803208F07F
:100DD00071C0E091A80181E08E0F8093A8018091FD
:100DE000BB00F0E0E857FE4F80833DC0803B39F008
:100DF000E0F4803A09F479C0883A09F09CCF84E0A5
:100E00008093AA011092870110928601E091DB0184
:100E1000F091DC0109958091860181110FC081E07C
:100E2000809386011092660109C0803C09F4A6CF28
:100E3000883C09F4A3CF883B09F07DCFE09187017E
:100E400081E08E0F80938701F0E0EA59FE4F8081A8
:100E50008093BB00909187018091860129C0809189
:100E6000CF018093BB0085EC8093BC0064CF909150
:100E7000CE018091CD01981758F5E091CE0181E027
:100E80008E0F8093CE01F0E0E355FE4F8081E9CFD5
:100E9000E091CE0181E08E0F8093CE018091BB0066
:100EA000F0E0E355FE4F80839091CE018091CD011B
:100EB0009817C8F285E8D8CFE091CE0181E08E0F77
:100EC0008093CE018091BB00F0E0E355FE4F80831C
:100ED0008091AC0181115CCF81E08093AB0184EA09
:100EE0008093BC001092AA0126CF85EC8093BC00B1
:100EF0001092AA018091A801803230F4E091A801FB
:100F0000F0E0E857FE4F10826091A80170E0E09198
:100F1000D901F091DA0188E891E009951092A801D1
:100F20000ACF1092A90134CFE5E6F2E013821282D3
:100F300088EE93E0A0E0B0E084839583A683B78336
:100F40002AE031E03183208325EC30E035872487A7
:100F500024EC30E03787268720EC30E0318B208B83
:100F600021EC30E0338B228B22EC30E0358B248B6C
:100F700026EC30E0378B268B118E128E138E148E5A
:100F8000E2E0F3E01382128284839583A683B78321
:100F90008CE191E091838083EEE0F3E01382128292
:100FA0008EE291E0918380838CE084838FEF858350
:100FB0008BE0868385E0878384E0808783E0818778
:100FC00082E082871386148615861686178681E04E
:100FD0000C94A403CF93DF93CDB7DEB7E9970FB698
:100FE000F894DEBF0FBECDBF789484B5826084BD17
:100FF00084B5816084BD85B5826085BD85B581601D
:1010000085BD80916E00816080936E00109281009A
:101010008091810082608093810080918100816055
:101020008093810080918000816080938000809116
:10103000B10084608093B1008091B00081608093A2
:10104000B00080917A00846080937A0080917A0069
:10105000826080937A0080917A00816080937A0028
:1010600080917A00806880937A001092C100E091AC
:101070007502F091760282E08083E0917502F09132
:1010800076021082E0917102F09172021082E0917A
:101090007302F091740210E1108310927D02E091CE
:1010A0007902F0917A0286E08083E0917702F091F4
:1010B0007802808180618083E0917702F0917802EC
:1010C000808188608083E0917702F091780280814E
:1010D00080688083E0917702F091780280818F7D33
:1010E00080831092E0011092DF011092DE011092D5
:1010F000DD010E94770286EA90E09093DC01809304
:10110000DB0187EA90E09093DA018093D901109394
:10111000BA0087E494E09093E2018093E10186E0D5
:101120000E94870088E00E9487008DE00E9487006F
:1011300089E00E94870082E00E94A4039AE0492E81
:10114000512C612C712C20E0222E20E0322EE090D8
:101150006302F09064021E141F0424F580E4E3EEA1
:10116000F1E0A3E2B2E001900D928A95E1F703E28B
:1011700012E0F80161918F0185E692E00E94710111
:10118000C801835292408E159F059CF388E391E03D
:101190000E94DE0286E391E00E94DE021092640269
:1011A000109263021DAA1CAA1FAA1EAA19AE18AE8D
:1011B00043E252E0FA0101900020E9F7AF01445206
:1011C000524063E272E0CE01C4960E94FF048CA9F3
:1011D0009DA9009709F409C10E941B0A8B016B01AC
:1011E000770FEE08FF08F7FE04C16DE285E692E096
:1011F0000E94710122273327A9012C193D094E09AC
:101200005F0919A2CE0181967C01CA01B901A3012F
:1012100092010E94C30A605DF70162937F0121156C
:1012200031054105510589F7E114F10419F0C701B1
:101230000E94DE0286E391E00E94DE02B801CE0148
:1012400082960E942A05BE016E5D7F4FCE010196F7
:101250000E94620569E371E0CE0101960E94C60416
:10126000BC01CE018E960E946205CE0101960E94BD
:101270009604CE0182960E949604CE018E960E941C
:10128000EB02CE01C4960E94EB022AA93BA988ADCD
:1012900099AD28173907A9F4BE016C5C7F4FCE01C8
:1012A0008E960E946904892B61F4073211050CF4B3
:1012B000B6C061E086E00E94DE0161E08DE00E9440
:1012C000DE01B801CE0182960E942A05BE016E5D44
:1012D0007F4FCE0101960E9462056CE371E0CE0162
:1012E00001960E94C604BC01CE0188960E94620548
:1012F000CE0101960E949604CE0182960E94960429
:10130000CE0188960E94EB022CA53DA588AD99AD33
:1013100028173907A9F4BE016C5C7F4FCE0188966F
:101320000E946904892B61F4023311050CF47DC01D
:1013300061E088E00E94DE0161E089E00E94DE0158
:101340000E949C03E1E0809121038111E0E0E1959E
:10135000F0E0E25FFC4F848980680E94960348AD0C
:1013600059AD6CA97DA98EE093E00E94D1000E9446
:101370002A026B017C018AEF882E912CA12CB12CC2
:101380000E942A026C197D098E099F09683E7340EC
:1013900081059105A8F3F1E08F1A9108A108B10821
:1013A00028EEC20E23E0D21EE11CF11C8114910430
:1013B000A104B10429F70E949C03CE0188960E94E3
:1013C0009604CE018E960E949604CE01C4960E9489
:1013D00096042114310409F4BACE0E943B018823FB
:1013E00009F4B5CE0E940000B2CE60E070E0CB01FF
:1013F000F5CEA701960119A2CE0181967C01CA0102
:10140000B901A30192010E94C30A605DF7016293D2
:101410007F01211531054105510589F705CF60E0B0
:1014200086E00E94DE0160E049CF60E088E00E9433
:10143000DE0160E082CF1F93FC0199278827BC0161
:10144000E89411911032E9F3193010F01E30C8F30E
:101450001B3251F01D3249F4689406C00E944D0AB7
:10146000610F711D811D911D119110531A30B0F340
:101470003EF490958095709561957F4F8F4F9F4F6B
:101480001F910895BB274A3031F4992322F4BDE21D
:10149000909581959F4F0C94630A592F482F372FB1
:1014A000262F660F771F881F991F660F771F881FCB
:1014B000991F620F731F841F951F660F771F881F68
:1014C000991F0895BB27FB015527AA27880F991F4D
:1014D000AA1FA41710F0A41B83955051B9F7A05D63
:1014E000AA3308F0A95DA193009779F7B111B193E0
:1014F0001192CB010C947C0ADC01FC01672F7191E5
:101500007723E1F7329704C07C916D9370836291E9
:10151000AE17BF07C8F308952F923F924F925F9284
:101520006F927F928F929F92AF92BF92CF92DF92F3
:10153000EF92FF920F931F93CF93DF93CDB7DEB758
:10154000CA1BDB0B0FB6F894DEBF0FBECDBF0994EC
:101550002A88398848885F846E847D848C849B8443
:10156000AA84B984C884DF80EE80FD800C811B8151
:10157000AA81B981CE0FD11D0FB6F894DEBF0FBE80
:10158000CDBFED010895A1E21A2EAA1BBB1BFD01E0
:101590000DC0AA1FBB1FEE1FFF1FA217B307E40752
:1015A000F50720F0A21BB30BE40BF50B661F771FAA
:1015B000881F991F1A9469F760957095809590958A
:1015C0009B01AC01BD01CF010895EE0FFF1F0590F7
:1015D000F491E02D09940F931F93CF93DF93823002
:1015E000910510F482E090E0E0912803F091290346
:1015F00030E020E0B0E0A0E0309799F4211531050B
:1016000009F44AC0281B390B24303105D8F58A81EA
:101610009B816115710589F1FB0193838283FE0132
:1016200011C0408151810281138148175907E0F0B0
:101630004817590799F4109761F012960C93129776
:1016400013961C933296CF01DF91CF911F910F918A
:1016500008950093280310932903F4CF2115310531
:1016600051F04217530738F0A901DB019A01BD017F
:10167000DF01F801C1CFEF01F9CF909329038093E7
:101680002803CDCFFE01E20FF31F819391932250E7
:10169000310939832883D7CF20912603309127033E
:1016A000232B41F420910201309103013093270351
:1016B000209326032091000130910101211531056D
:1016C00041F42DB73EB74091040150910501241B10
:1016D000350BE0912603F0912703E217F307A0F4FE
:1016E0002E1B3F0B2817390778F0AC014E5F5F4F78
:1016F0002417350748F04E0F5F1F50932703409380
:101700002603819391939FCFF0E0E0E09CCFCF93AD
:10171000DF930097E9F0FC01329713821282A091C7
:101720002803B0912903ED0130E020E01097A1F4E7
:1017300020813181820F931F20912603309127034E
:101740002817390709F061C0F0932703E0932603B7
:10175000DF91CF910895EA01CE17DF07E8F54A81BE
:101760005B819E0141155105B1F7E901FB83EA83D5
:1017700049915991C40FD51FEC17FD0761F4808181
:1017800091810296840F951FE90199838883828154
:1017900093819B838A83F0E0E0E012968D919C9187
:1017A00013970097B9F52D913C911197CD010296B1
:1017B000820F931F209126033091270328173907A2
:1017C00039F6309751F51092290310922803B093FF
:1017D0002703A0932603BCCFD383C28340815181CA
:1017E000840F951FC817D90761F44E5F5F4F88813A
:1017F0009981480F591F518340838A819B8193832C
:1018000082832115310509F0B0CFF0932903E093CD
:1018100028039ECFFD01DC01C0CF13821282D7CFF7
:10182000B0E0A0E0E6E1FCE00C948E0A8C010097A9
:1018300051F4CB010E94EB0A8C01C801CDB7DEB791
:10184000E0E10C94AA0AFC01E60FF71F9C0122506C
:101850003109E217F30708F49DC0D901CD91DC915D
:101860001197C617D70798F0C530D10530F3CE01D0
:1018700004978617970708F3C61BD70B2297C193C7
:10188000D1936D937C93CF010E94870BD6CF5B01E0
:10189000AC1ABD0A4C018C0E9D1EA0912803B0917C
:1018A0002903512C412CF12CE12C109731F580911A
:1018B0002603909127038815990509F05CC0461608
:1018C000570608F058C080910001909101010097DF
:1018D00041F48DB79EB74091040150910501841BDE
:1018E000950BE817F90708F055C0F0932703E0932C
:1018F0002603F90171836083A0CF8D919C9111978C
:1019000012966C90129713967C901397A815B905B0
:1019100059F56C0142E0C40ED11CCA14DB0420F15D
:10192000AC014A195B09DA011296159780F06282C0
:10193000738251834083D9016D937C93E114F10448
:1019400071F0D7011396FC93EE93129776CF2296FF
:101950008C0F9D1FF90191838083F301EFCFF093EA
:101960002903E093280369CF4816590608F42C018F
:101970007D01D3019ACFCB010E94EB0A7C01009735
:1019800049F0AE01B8010E94CD0CC8010E94870B3E
:10199000870153CF10E000E050CFFB01DC0102C013
:1019A00001900D9241505040D8F70895FB01DC01A1
:1019B0008D91019080190110D9F3990B0895FB01C5
:1019C000DC0101900D920020E1F70895F894FFCF1B
:1019D00000002A038000000000007101D100FE0019
:1019E000BE012F010D01210100000000CA02BF024B
:1019F000DB029502B802A502960200000000410435
:101A0000D100DB024F020D0A002A43002552480094
:00000001FF
